:020000040800F2
:10000000D006002045010008931E0008091C0008C6
:10001000911E00080908000859220008000000008D
:10002000000000000000000000000000971E000813
:100030003F08000800000000951E0008991E0008F7
:100040005F0100085F0100085F0100085F01000810
:100050005F0100085F0100085F0100085F01000800
:100060005F0100085F0100085F0100085F010008F0
:100070005F0100085F0100085F0100085F010008E0
:100080005F0100085F0100085F0100085F010008D0
:100090005F0100085F0100085F0100085F010008C0
:1000A0005F0100085F0100085F0100085F010008B0
:1000B000F11E0008FD1E0008091F00085F0100086E
:1000C0005F0100085F0100085F0100085F01000890
:1000D0005F010008292200084D2200085F01000886
:1000E0005F0100085F0100085F0100085F01000870
:1000F0005F0100085F0100085F0100085F01000860
:100100005F0100085F010008151F00085F0100087B
:100110005F0100085F0100085F0100085F0100083F
:100120005F0100085F0100085F0100085F0100082F
:10013000DFF80CD000F056FB0048004735240008DB
:10014000D00600200648804706480047FEE7FEE745
:10015000FEE7FEE7FEE7FEE7FEE7FEE7FEE7FEE777
:10016000ED1E000831010008202A04DB203A21FAA4
:1001700002F00021704721FA02F3D040C2F12002C0
:10018000914008431946704740EA01039B0703D09A
:1001900009E008C9121F08C0042AFAD203E011F8C6
:1001A000013B00F8013B521EF9D27047D2B201E088
:1001B00000F8012B491EFBD270470022F6E710B56C
:1001C00013460A4604461946FFF7F0FF204610BDC5
:1001D000F0B480EA0102D40F4200B2EB410F02D228
:1001E0000246084611464A0042D0C30DDDB2C1F3B3
:1001F000C752AD1A202D35DAC1F3160141F40002C1
:1002000004B15242C5F1200602FA06F12A41104417
:10021000B3EBD05F23D0C4B1012DA0EBC35009DCF8
:10022000F0BC4FF0004202EAC352DBB200F500001E
:1002300000F04CBA400000F1807000EBC350A0F118
:10024000807040EAD170490009E0490841EAC07174
:10025000A0EBC35000F50000400800EBC350F0BC19
:1002600000F02BBA6142012202EB4101001BF6E7CC
:10027000F0BC704781F00041AAE780F00040A7E79A
:1002800080EA010210B502F00043400022D04A008B
:100290001FD0010E01EB1261C0F35600C2F35602EB
:1002A00040F4000042F40002A0FB022000047F3969
:1002B000140400D0401C50EA124001D44000491EF2
:1002C000C2B20C0604EBD010401C4008802A02D0B9
:1002D00003E0002010BD20F00100002900DA00201A
:1002E000184310BD30B480EA010202F0004530F03E
:1002F000004221F0004013D090B1C30DD40DC2F3E1
:100300001601C0F31600E41A41F4000140F40002A3
:100310007D34914201D3641C00E04900002C02DAD4
:1003200030BC002070474FF400000023914201D3FD
:10033000891A034340084FEA4101F7D151B1914274
:1003400002D14FF0004105E002D24FF0010101E07F
:100350006FF0010103EBC450284430BC00F0ADB98C
:10036000420005D0C0F3C7525242914201DC002046
:10037000704700EBC15070472DE9FE4F804681EA7F
:100380000300C00F0C46009021F0004123F000450F
:10039000B8EB0200A94105D24046214690461C46D2
:1003A0000B46024623F00040104347D0270DC7F309
:1003B0000A00C3F30A510290401A019040286BDAF8
:1003C000C3F3130040F4801B0098924620B1002331
:1003D000D2EB030A63EB0B0B01985946C0F14002C4
:1003E000504600F049F906460D4650465946019AD6
:1003F00000F051F910EB08006141002487EA115226
:1004000084EAE7731A4340D0009A62B3019A012A42
:100410004FEA075215DC001B61EB02014FF000426E
:1004200002EA0752CDE90042001C41F58011324634
:100430002B4600F088F903B0BDE8F08F4046214616
:10044000F9E7001B61EB0201001C41F58013001865
:100450005B412018A2F5001747EB030140EAD57075
:10046000B6196D4111E06D084FEA360645EAC075D0
:100470004FEA0752001B61EB0201001C41F580119D
:1004800049084FEA30000019514132462B4603B06B
:10049000BDE8F04F00F048B9009801224000002369
:1004A000D0EB020263EBE073009821464FEAE07460
:1004B000B8EB000061EB0401E9E783F000435BE780
:1004C00081F0004158E72DE9FE4F81EA030404F072
:1004D000004421F0004100944FF0000B23F0004352
:1004E00050EA01045ED052EA03045BD0C3F30A541D
:1004F000C1F30A552C44A4F2F3340194A0FB025436
:10050000C1F3130141F48011C3F3130343F48013C7
:1005100001FB024400FB034E840A970A44EA81541B
:1005200047EA8357A4FB076802958D0A05FB0785F8
:100530004FEA932C04FB0C542705029D4FEA065802
:1005400047EA1637B5EB08056EEB070C870E920EDF
:1005500047EA811742EA8312A7FB0201B6EB0B01BF
:1005600064EB00042B0D43EA0C335E1844EB1C5083
:10057000DA465146E7FB0201C5F313044FEA0B3399
:1005800043EA14534FEA0432019C43EA0603A4F100
:100590000C040294009CCDE900B400F0D4F803B040
:1005A000BDE8F08F00200146F9E7C10F80EAE07056
:1005B0000844CA079623002100F088B800F00042E2
:1005C00020F00040C10DC0F3160040F400007F2968
:1005D00001DA00207047962903DCC1F19601C8407A
:1005E00001E096398840002AF4D04042704700F07C
:1005F000004230F000400AD0C10D01F56071C0F337
:10060000160042EA0151C20840071143704700201A
:100610000146704701F0004330B421F0004150EA38
:10062000010206D00A0DA2F56072C1F31301002A7F
:1006300002DC30BC00207047440F44EAC104C10012
:10064000E01830BC00EBC25000F037B830B50B46B4
:10065000014600202022012409E021FA02F59D42F2
:1006600005D303FA02F5491B04FA02F52844151EC6
:10067000A2F10102F1DC30BD202A04DB203A00FAAD
:1006800002F1002070479140C2F1200320FA03F3E9
:10069000194390407047202A06DBCB17203A41FAD5
:1006A00002F043EAE07306E041FA02F3D040C2F1FF
:1006B000200291400843194670470029A8BF70479F
:1006C000401C490008BF20F00100704710B4B0FA88
:1006D00080FC00FA0CF050EA010404BF10BC704723
:1006E00049B1CCF1200421FA04F411FA0CF118BF3D
:1006F000012121430843A3EB0C01CB1D4FEA00610C
:100700004FEA102042BF002010BC704700EBC350DE
:1007100010440029A4BF10BC7047401C490008BF0A
:1007200020F0010010BC704710B5141E73F10004D6
:1007300008DA401C41F1000192185B411A4301D1D3
:1007400020F0010010BD2DE9F04D92469B4611B1FD
:10075000B1FA81F202E0B0FA80F220329046FFF75F
:100760008BFF04460F4640EA0A0041EA0B0153465C
:100770005A46084313D0114653EA010019D0C8F174
:1007800040025046FFF7F0FC05460E4650465946DB
:100790004246FFF771FF084305D0012004E02046E0
:1007A0003946BDE8F08D0020054346EAE0762C434B
:1007B00037430A986305E40AA0EB08000022FD0A0B
:1007C00044EA47540A3002D500200146E9E7010512
:1007D00010196941DDE9084500196941BDE8F04D8E
:1007E000A2E70000064C074D06E0E06840F0010378
:1007F00094E8070098471034AC42F6D3FFF79CFC0E
:10080000A4290008C4290008FEE7F0B54FF6FF74DC
:1008100000254AF201070CE0465D744000265FEABD
:10082000C47C4FEA540400D07C40761C082EF6DBD2
:100830006D1C8D42F0DB1470200A1870F0BD7047FB
:1008400072B6FEE72DE9F05F90F82110002402292E
:1008500003D004218163012485E001680A6822F045
:100860000E020A6001680A6822F001020A603F4E27
:100870003E4FB215DFF8F4C0DFF8F090DFF8ECA0DF
:10088000DFF8E8B0DFF8E4E00168783F1301150213
:10089000ACF1640CA9F15009AAF13C0AABF1280BA8
:1008A000AEF1140E4FF48018B14227D9B9420ED0E0
:1008B000614512D049451DD0514518D0594518D031
:1008C000714501D1424615E0294EB14201D10122C4
:1008D00010E0274E1436B14201D110220AE0244E16
:1008E0002836B14206D0224A3C32914201D11A4602
:1008F00000E02A461E49091F0A602BE0B94213D0C6
:10090000614517D0494522D051451DD059451DD0CC
:10091000714501D142461AE0B14202D14FF08072D6
:1009200015E0134EB14201D1012210E0104E1436F1
:10093000B14201D110220AE00D4E2836B14206D054
:100940000B4A3C32914201D11A4600E02A4607493F
:1009500080394A60012180F82110002180F82010A0
:10096000416B01B188472046BDE8F09F80000240FE
:100970000804024070B5044600F018F90546601CF2
:1009800002D004480078044400F010F9401BA04253
:10099000FAD370BD100000202DE9F84FDFF8C891A0
:1009A000002409F1040A0AF1040B23460F270BF176
:1009B000040ED1E00125A54006EA0502AA4276D13F
:1009C000DFF8A8C14E68A6EB0C0866452BD00DDCFD
:1009D000032E34D005DC36B3012E19D0022E2FD1D0
:1009E0001BE0112E16D0122E2AD119E0B8F5881F5F
:1009F00019D006DCB8F5803F15D0B8F5801F1FD19F
:100A000011E0B8F5001F0ED0B8F5041F18D10AE0A8
:100A1000CB6815E0CB681B1D12E0CB6808330FE0F4
:100A2000CB680C330CE08B682BB1012B4FF0080323
:100A300003D0456104E0042302E0056100E00023E7
:100A4000FF2A01D8064601E000F104064FEA8405BA
:100A500001D9A5F12005D6F8008007FA05FC28EA9F
:100A60000C0803FA05F548EA0508C6F800804D6849
:100A7000ED0070D53E4DAE6946F00106AE61AD6940
:100A800024F0030605F0010500953A4D06EB050C30
:100A9000DCF80850A607360F07FA06F825EA08051D
:100AA000DFF8D480404503D14FF0000825E052E044
:100AB000DFF8C880404502D14FF001081DE0DFF8A3
:100AC000C080404502D14FF0020816E0DFF8B48044
:100AD000404502D14FF003080FE0DFF8AC804045FD
:100AE00002D14FF0040808E0DFF8A080404502D1B1
:100AF0004FF0050801E04FF0060808FA06F848EA4A
:100B00000508CCF808804D68D9F80060ED034D4623
:100B100001D5164300E096432E604D68DAF8006078
:100B2000AD03554601D5164300E096432E604D684F
:100B3000DBF80060ED025D4601D5164300E0964308
:100B40002E604D68DEF80060AD02754601D5164393
:100B500000E096432E60641C0A681646E2407FF46B
:100B600029AFBDE8F88F000000040140000011101B
:100B7000001002400000014000080140000C01404C
:100B8000001001400014014000180140001C014009
:100B9000C26821EA02030A4043EA02410161704748
:100BA0000AB1016170470904FBE700000148806851
:100BB000704700001000002002488168027811444C
:100BC0008160704710000020074810B5016841F0AF
:100BD00010010160032000F075F8002000F006F815
:100BE00000F024F8002010BD0020024070B50D4D2B
:100BF00004464FF47A712878B1FBF0F00A4909688D
:100C0000B1FBF0F000F0ECFA48B9102C07D200224A
:100C10002146501E00F036F800206C6070BD0120A7
:100C200070BD0000100000201C0000200C4808B51A
:100C3000816941F001018161816901F00101009147
:100C4000C16941F08051C161C06900F080500090DD
:100C50000448416821F0E06141F08061416008BDD5
:100C60000010024000000140002809DB00F01F02D4
:100C7000012191404009800000F1E020C0F80011FE
:100C800070470000F0B40E4B1B680C46C3F3022300
:100C9000C3F10705042D00D90425191D072901D228
:100CA000002300E0DB1E012606FA05F1491E214063
:100CB00099409E40761E16403143F0BC01F0DEBAEA
:100CC0000CED00E0064900F0070208684FF6FF034C
:100CD000184040EA0220034A1043086070470000B1
:100CE0000CED00E00000FA052DE9F0470F46050085
:100CF00061D0434E306800F00700B84209D2306836
:100D000020F0070038433060306800F00700B84238
:100D100051D128683B4C810712D5400703D5606844
:100D200040F4E06060602878000703D5606840F414
:100D3000605060606068A96820F0F000084360605F
:100D40002878C00728D06868012810D021680228B8
:100D500010D0890700292EDA616821F003010143D0
:100D60006160FFF723FF804641F288390DE021687A
:100D70008903EFE78901EDE7FFF718FFA0EB080112
:100D8000494502D90320BDE8F0876068696800F032
:100D90000C00B0EB810FEFD1306800F00700B842D3
:100DA0000BD9306820F0070038433060306800F01D
:100DB0000700B84201D00120E5E72878400705D5B3
:100DC0006068E96820F4E060084360602878000704
:100DD00006D56068296920F4605040EAC10060606F
:100DE00000F038F86168084AC1F30311515CC8404B
:100DF0000649086006480068FFF7F8FE0020C2E7D1
:100E000000200240001002408C2900081C00002035
:100E1000140000200448054900684968044AC1F3E9
:100E20000221515CC84070471C00002000100240A5
:100E30009C2900080448054900684968044AC1F330
:100E4000C221515CC84070471C00002000100240C5
:100E50009C29000812A185B00FC98DE80F0014A0CD
:100E6000144A006804905168134801F00C03042BE5
:100E700010D0082B0ED1C1F38343C9031DF8030022
:100E80000AD5516804AAC1F34041515C0A4A504353
:100E9000B0FBF1F005B0704708494843FAE700009D
:100EA00002030405060708090A0B0C0D0E0F1010AB
:100EB000010200000010024000127A0000093D000B
:100EC0002DE9F84F040070D02078C04DC00749D0FC
:100ED0006868C0F38100012807D06868C0F381000A
:100EE000022809D16868C00306D52868800339D56F
:100EF00060680028E7D035E06068B0F5803F0BD02F
:100F000010B1B0F5A02F11D0286820F480302860EF
:100F1000286820F4802002E0286840F480302860AF
:100F2000606890B1FFF742FE06460AE0286840F488
:100F300080202860F0E700BFFFF738FE801B6428A0
:100F400073D828688003F7D50CE0FFF72FFE06461C
:100F500005E000BFFFF72AFE801B6428F0D8286850
:100F60008003F7D420789A4E80074FF001094FF0A4
:100F7000000839D5686810F00C0F07D06868C0F316
:100F80008100022809D16868C00306D42868800758
:100F900014D52069012808D110E02069B0B1C6F845
:100FA0000090FFF703FE074605E00AE1FFF7FEFDAC
:100FB000C01B0228C4D828688007F7D52868616953
:100FC00020F0F80040EAC10028600DE0C6F800807B
:100FD000FFF7ECFD074604E0FFF7E8FDC01B022821
:100FE00023D828688007F7D4207800072CD57948C3
:100FF000A169D9B1C0F80090FFF7D8FD074604E019
:10100000FFF7D4FDC01B02280FD8686A8007F7D508
:1010100071484FF4FA510068B0FBF1F0009000BF46
:101020000098411E0091FAD20EE080E0C0F80080E6
:10103000FFF7BCFD074604E0FFF7B8FDC01B022820
:1010400075D8686A8007F7D42078400760D5E869CA
:101050000027C00008D4E86940F08050E861E869E2
:10106000012700F0805000905C480168C90513D446
:101070000168834641F480710160FFF797FD824665
:1010800006E000BFFFF792FDA0EB0A0064284ED8EF
:10109000DBF80000C005F5D5E06801280AD008B1EA
:1010A000052813D0286A20F001002862286A20F061
:1010B000040002E0286A40F001002862E06841F282
:1010C000883B98B1FFF772FD82460BE0286A40F03A
:1010D00004002862EEE700BFFFF768FDA0EB0A01FD
:1010E00059455AD8286A8007F6D50CE0FFF75EFD0F
:1010F000824605E0FFF75AFDA0EB0A0159454CD89E
:10110000286A8007F6D41FB1E86920F08050E861B2
:10111000E06988B36968C1F38101022944D00228DB
:10112000C6F8608004D0FFF741FD044638E034E0A3
:10113000FFF73CFD074604E0FFF738FDC01B02281F
:101140002BD828688001F7D4206AB0F5803F05D1FC
:101150006868A16820F4003008436860D4E9080199
:101160000843696821F4741108436860C6F8609008
:10117000FFF71CFD044606E025E000BFFFF716FD63
:10118000001B022809D828688001F7D51BE000BFA2
:10119000FFF70CFD001B022802D90320BDE8F88FE1
:1011A00028688001F4D40EE00128F7D06868226A2C
:1011B00000F48031914204D1616A00F470108842D9
:1011C00001D00120EAE70020E8E70000001002401B
:1011D00000004242800442421C0000200070004097
:1011E00010B5401EB0F1807F01D3012010BD4FF03B
:1011F000E02460610F21601701F040F80020A06139
:1012000007202061002010BD7047704770B590F82E
:101210003C20012A2CD0012480F83C40022280F896
:101220003D2003685A689D6822F070060A683243C0
:101230005A60104B02689A420ED00F4B9A420BD064
:10124000B2F1804F08D00D4B9A4205D00C4B9A4218
:1012500002D00C4B9A4204D1496825F0800319430F
:10126000916080F83D40002180F83C10084670BD38
:10127000022070BD002C01400034014000040040F9
:1012800000080040000C004010B5040003D094F8A2
:101290003D0010B107E0012010BD002084F83C00A3
:1012A000204600F01FF8022084F83D00211D206830
:1012B00000F036FE012084F8460084F83E0084F8F1
:1012C0003F0084F8400084F8410084F8420084F82C
:1012D000430084F8440084F8450084F83D00002071
:1012E00010BD000008B5154A0168154891420ED19D
:1012F000C16941F00401C161C069002200F004002D
:10130000009002211E20FFF7BDFC1E2010E00D4AB8
:10131000914211D1C16941F00801C161C069002247
:1013200000F00800009002213220FFF7ABFC3220D1
:10133000BDE80840FFF798BC08BD00000008004069
:1013400000100240000C004090F83D10012901D02F
:1013500001207047022180F83D100168CA6842F000
:101360000102CA6000680E4988420ED00D498842C9
:101370000BD0B0F1804F08D00B49884205D00B4903
:10138000884202D00A49884204D1816801F00701ED
:10139000062903D0016841F0010101600020704777
:1013A000002C0140003401400004004000080040CF
:1013B000000C004070B5044690F83C00012817D09E
:1013C000012584F83C50022084F83D0020688268A2
:1013D00022F0770222F47F4282600868502830D0E1
:1013E0000DDC20284DD005DC98B310283BD148E017
:1013F000022070BD302844D0402834D139E0602824
:1014000028D0702806D0B0F5805F2CD0B0F5005FF2
:1014100029D10AE0CB68D1E90121206800F0D3FD91
:101420002068816841F0770109E0CB68D1E90121AA
:10143000206800F0C8FD2068816841F48041816027
:1014400011E0CA684968206800F0CFFD502120688B
:1014500007E016E0CA684968206800F0D7FD6021FF
:10146000206800F0BAFD84F83D50002084F83C006C
:1014700070BDCA684968206800F0B7FD4021206847
:10148000EFE7226801461046EBE72DE9F0410D46F3
:10149000040003D094F83D0018B108E00120BDE835
:1014A000F081002084F83C00204600F041F8022042
:1014B00084F83D002068816844F20702914381600E
:1014C000211D206800F02CFD226890689169166A41
:1014D0002B68AF69034340F20330814341EA07219F
:1014E000A868EF6908434FF6FC418843E96840EA81
:1014F0000720014328692F6A000140EA07300843AA
:1015000069686D6926F0220646EA0515294393604D
:101510002268906154F8460B0162012004F81F090B
:10152000E0752076E0762077A0750020B7E7000010
:1015300000B585B0002100910191029103910268EC
:1015400021492248B2F1804F22D0214B9A421DD12D
:10155000CA6942F00202CA61CA6902F00202049238
:101560008A6942F004028A61896901F004010491E8
:10157000C02100916946FFF70FFA002201211D20CA
:10158000FFF780FB5FF01D00FFF76EFB05B000BDAD
:10159000CA6942F00102CA61CA6902F001020492FA
:1015A0008A6942F004028A61896901F004010491A8
:1015B000032100916946FFF7EFF9002201211C2069
:1015C000FFF760FB1C20DFE700100240000801402D
:1015D0000004004070B590F83E60044690F83F501B
:1015E00090F8423090F84320022021B104290ED017
:1015F000012E1BD114E0012E18D1012B16D184F835
:101600003E0084F8420001220021206820E0012DE4
:101610000CD1012A0AD184F83F0084F8430014E079
:10162000012D03D1012B01D1012A01D0012070BD70
:1016300084F83E0084F83F0084F8420084F84300B8
:1016400001220021206800F0B1FC01220421206861
:1016500000F0ACFC2068016841F00101016000204D
:1016600070BD704770B50446006801694FF0000511
:10167000C943890715D4C168C943890711D4E91E34
:10168000016101202077206880698007204602D010
:10169000FFF7E7FF04E000F098F8204600F096F826
:1016A000257720680169C943490717D4C168C94330
:1016B000490713D46FF004010161022020772068EC
:1016C000806910F4407F204602D0FFF7CAFF04E093
:1016D00000F07BF8204600F079F825772068016952
:1016E000C943090716D4C168C943090712D46FF06A
:1016F00008010161042020772068C0698007204626
:1017000002D0FFF7AEFF04E000F05FF8204600F0E3
:101710005DF8257720680169C943C90617D4C168F7
:10172000C943C90613D46FF0100101610820207766
:101730002068C06910F4407F204602D0FFF791FF77
:1017400004E000F042F8204600F040F825772068D9
:101750000169C943C90708D1C168C943C90704D190
:10176000891E0161204600F033F820680169C943F1
:10177000090609D4C168C943090605D46FF0800180
:1017800001612046FFF740FD20680169C943490611
:1017900009D4C168C943490605D46FF0400101610D
:1017A000204600F043F820680169C94389060BD43C
:1017B000C168C943890607D46FF020010161204642
:1017C000BDE87040FFF721BD70BD70477047000055
:1017D00070B504461248134E134D844209D1314668
:1017E000284600F0F5FEFEF7E9FE0146287800F0F5
:1017F000C3FE0520FFF7BEF80948483084420DD1EA
:1018000009483146803000F0E3FEFEF7D7FE01467E
:1018100095F88000BDE8704000F0AEBE70BD0000DD
:10182000C00100200AD7A33C300000207047704759
:1018300070B5026804461068D168536910F00F0F44
:1018400052D003F0010501F490762E435FD0C20719
:1018500005D0CA0503D5E26B42F00102E2634207FC
:1018600005D5DA0703D0E26B42F00202E263820799
:1018700005D5DA0703D0E26B42F00402E263020707
:1018800007D501F020022A4303D0E26B42F00802A0
:10189000E263E26B002A33D0800604D5880602D5C5
:1018A000204600F0EDFB20684069E16BC0F380103A
:1018B000090700D428B3204600F0C2FB2068416924
:1018C00049061AD5416921F040014161606BA0B120
:1018D0002D494163606BFEF7B5FF002810D0606BA7
:1018E000416BBDE870400847830610D58B060ED5C6
:1018F0002046BDE8704000F0C3BB2046FFF797FFCD
:1019000070BD2046FFF793FF0020E06370BD030623
:101910002BD50B0629D594F839002128F6D1A068DB
:10192000B0F5805F01D12069B0B1206A411C21620D
:10193000216800784860E08C401E0004000CE084C0
:10194000E4D12068C16821F08001C1602068C168CD
:1019500041F04001C16070BD206A0088C0F30800FA
:101960005060206A801C2062E5E74006F3D54806F7
:10197000F1D5D168204621F04001D160202184F8C2
:10198000391000F040F970BD3120000870B5040036
:1019900004D094F83900002510B106E0012070BD94
:1019A00084F83850204600F023F8242084F83900C9
:1019B0002068C16821F40051C160204600F0A6FBF8
:1019C0002068016921F4904101612068416921F09A
:1019D0002A0141612068C16841F40051C160E5639A
:1019E000202084F8390084F83A00002070BD0000FF
:1019F00070B586B0002400940194029403942E4E96
:101A000003682E49022003222D4DB34226D18B6953
:101A100043F480438B618B6903F4804304938B69A7
:101A200043F004038B618969039201F0040104917E
:101A30000102CDE9001069462846FEF7ADFF2815E2
:101A4000CDE90004694628460294FEF7A5FF00226E
:101A500011462520FFF716F9252028E0194EB3423C
:101A600027D1CB6943F40033CB61CB6903F4003356
:101A700004938B6943F004038B618969039201F03D
:101A8000040104910421CDE9001069462846FEF7BF
:101A900083FF0820CDE90004694628460294FEF73A
:101AA0007BFF002211462620FFF7ECF82620FFF7E7
:101AB000DBF806B070BD00000038014000100240A5
:101AC000000801400044004090F83A30202B22D119
:101AD000F9B1F2B190F83830012B1CD081628285C7
:101AE000C2850021C163222280F83A2080F8381094
:101AF0000168CA6842F48072CA6001684A6942F0AB
:101B000001024A610068C16841F02001C160002003
:101B100070470120704702207047000000680849A4
:101B200088420CD107480949074B027808681A54C3
:101B3000401C0860012203490548FFF7C5BF7047F4
:101B4000003801400C000020240000200800002084
:101B5000500200202DE9F843044690F839001F4652
:101B600016460D4620284CD1C5B1BEB194F83800B8
:101B7000012846D0012084F838004FF00008C4F84E
:101B80003C80212084F83900FFF710F8A6848146B4
:101B9000E684A068B0F5805F03D004E00120BDE8D2
:101BA000F883206928B12E465FF0000584F838805C
:101BB0000EE00026FAE78021204600F003FBA0B9E2
:101BC000AEB116F8010B21684860E08C401EE0843D
:101BD000E08C4B464FF0000200970028EBD14FF00D
:101BE0004001204600F0EEFA30B10320D7E735F887
:101BF000020BC0F30800E6E7202084F8390000203B
:101C0000CDE70220CBE77047FEE7000030B585B096
:101C1000002414480094019402940394816941F0D3
:101C200040018161816901F040010491816941F0C5
:101C30000401816180690C4D00F0040004900022D1
:101C40003C212846FEF7ACFF3C2000900120CDE966
:101C500001040220039069462846FEF79DFE05B068
:101C600030BD0000001002400018014010B58CB0DB
:101C700024216846FEF7A1FA0024154809944FF084
:101C800080410A94C0E900144FF6FF71C0E9024197
:101C9000046184610120CDE90004CDE902040494CB
:101CA000CDE905400794694609480894FFF7EDFB24
:101CB00008B1FEF7C5FD099409A905480A94FFF784
:101CC000A5FA002801D0FEF7BBFD0CB010BD000046
:101CD0003001002010B58CB024216846FEF76DFA63
:101CE00000241548099413490A94C0E900144FF6DA
:101CF000FF71C0E90241046184610120CDE9000463
:101D0000CDE902040494CDE90540079469460A48E8
:101D10000894FFF7BAFB08B1FEF792FD099409A9F0
:101D200005480A94FFF772FA002801D0FEF788FDF3
:101D30000CB010BD000400407801002010B586B042
:101D400000241848009401940294039404941449C4
:101D50000594016040F28F11C0E9011440F2E731AF
:101D6000C0E9031480218161FFF78EFA08B1FEF704
:101D700067FD4FF48050009069460A48FFF71AFB50
:101D800008B1FEF75DFD049404A906480594FFF729
:101D90003DFA002801D0FEF753FD06B010BD00004B
:101DA00000080040C001002010B586B0002417488C
:101DB00000940194029403940494134905940160DF
:101DC00040F28F11C0E9011440F2E731C0E9031479
:101DD0008461FFF759FA08B1FEF732FD4FF48050E5
:101DE000009069460948FFF7E5FA08B1FEF728FDBB
:101DF000049404A905480594FFF708FA002801D0C7
:101E0000FEF71EFD06B010BD000C004008020020C9
:101E10000E4810B50C4901604FF4165141604FF463
:101E20008051816000214FF48062C0E903120C22CE
:101E3000C0E90521C161FFF7A9FD002803D0BDE875
:101E40001040FEF7FDBC10BD0038014050020020DC
:101E50000E4810B50C4901604FF4165141604FF423
:101E60008051816000214FF48062C0E903120C228E
:101E7000C0E90521C161FFF789FD002803D0BDE855
:101E80001040FEF7DDBC10BD004400409002002071
:101E9000FEE7FEE770477047FEF78EBE10B590B0C4
:101EA00028216846FEF789F914210AA8FEF785F96A
:101EB0000220009001200490102000240590079437
:101EC0006846FEF7FDFF08B172B6FEE70F20CDE9C8
:101ED0000A040C940D9400210AA80E94FEF704FF46
:101EE000002801D072B6FEE710B010BD70470000A8
:101EF0000148FFF7B7BB0000300100200148FFF7A1
:101F0000B1BB0000780100200148FFF7ABBB000027
:101F1000C00100200148FFF7A5BB00000802002017
:101F2000F0B502681C4B1D4D1D4E1E4F1E4C4FF050
:101F3000804C984209D0A04207D0604505D0A84205
:101F400003D0B04201D0B84204D122F0700E4A68EA
:101F500042EA0E02984209D0A04207D0604505D05F
:101F6000A84203D0B04201D0B84203D122F4407558
:101F7000CA682A434D6922F080022A4302608A68B7
:101F8000C2620A688262984201D0A04201D1096906
:101F9000016301214161F0BD002C014000040040BB
:101FA00000080040000C00400034014010B501F072
:101FB0001F030121046A99408C430462016A9A401C
:101FC0001143016210BD10B5846842EA032224F473
:101FD0007F440A432243826010BD826822F070026F
:101FE0000A4342F007018160704710B5036A046A32
:101FF00024F001040462846924F0F00444EA021429
:1020000023F00A020A438461026210BD10B5036A1C
:1020100023F0100303628369046A23F4704343EAE4
:10202000023224F0A00343EA01118261016210BD73
:1020300010B5406A0021C185C184FFF7F8FB10BDCF
:102040000168CA6822F49072CA6001684A6922F085
:1020500001024A61202180F83A10704738B5064CD9
:10206000A04208D105490020086000F029FB206843
:1020700001684068009038BD500200200800002030
:1020800010B590F83A10222901D0022010BD8268C4
:102090004FF480539A4201D1016921B1816A9A4279
:1020A0001BD04AB10AE00268816A5268C2F3080292
:1020B0000A80816A891C08E0026972B1026852686C
:1020C00002F07F020A70816A491C8162C18D491E3B
:1020D0000904090CC18503D016E002685268F1E7D3
:1020E0000168CA6822F02002CA600168CA6822F446
:1020F0008072CA6001684A6922F001024A612021A7
:1021000080F83A10FFF70AFD002010BD70B50446B4
:1021100000680169E26821F44051114301612169BD
:10212000A0680843616908432168CA6841F20C63EA
:102130009A430243CA6020684169A26921F4407150
:10214000114341611E492068884202D1FEF772FEA8
:1021500001E0FEF75FFE00EBC00101EB00126068DA
:1021600064218000B2FBF0F3B3FBF1F36FF01806CB
:102170007343B2FBF0F5B2FBF0F605EB83053223B7
:1021800003EB0515B5FBF1F5B6FBF1F605F0F0052F
:1021900005EB0615B2FBF0F6B2FBF0F0B0FBF1F088
:1021A0006FF01802504306EB800003EB0010B0FB09
:1021B000F1F0216800F00F002844886070BD000035
:1021C000003801402DE9F041984617460E46044676
:1021D000069D1DE0681C1BD02DB1FEF7E7FCA0EBAF
:1021E0000800A84214D92068C16821F4D071C160E8
:1021F0002068416921F001014161202084F8390003
:1022000084F83A00002084F838000320BDE8F0810B
:102210002068006836EA000004D00020B842D9D017
:102220000020F3E70120F9E710B50748FFF700FBAE
:10223000054800680068C043C00604D4BDE81040EB
:102240000148FFF70BBF10BD500200200148FFF707
:10225000EFBA000090020020FEE700000FB4054B2B
:1022600010B503A9044A029800F028F810BC5DF8E4
:1022700014FB00001D240008200000200907090E9F
:10228000002804DB00F1E02080F80014704700F023
:102290000F0000F1E02080F8141D704702E008C82C
:1022A000121F08C1002AFAD170477047002001E0D0
:1022B00001C1121F002AFBD1704700002DE9FF4F1A
:1022C00089B09B460446002506E025280BD05A46D7
:1022D0000B999047641C6D1C20780028F5D10DB037
:1022E0002846BDE8F08F0027B8460122474900E0A4
:1022F000074314F8013F203B02FA03F00842F7D1EC
:1023000020782E2819D114F8010F47F004072A2845
:102310000ED06FF02F022078A0F1300109290CD8DF
:1023200008EB880102EB410100EB0108641CF2E7B5
:102330000A98641C50F8048B0A9020780028CED0AC
:10234000642808D0692806D075281ED05A460B99F3
:1023500090476D1C58E00A994FF00A0901C90A918B
:10236000002802DA40422D2102E0390504D52B2154
:102370008DF82010012103E0F90704D02021F7E7B0
:102380008A4608AE0DE00021FAE70A994FF00A09E3
:1023900001C90A91F7E74946FEF758F9303106F8C6
:1023A000011D0028F7D1ADEB060000F120097807E8
:1023B00001D44FF00108C84502DDA8EB090000E098
:1023C00000208046002706E008A85A46C05D0B9909
:1023D00090476D1C7F1C5745F6DB04E030205A46C1
:1023E0000B9990476D1CB8F10001A8F10108F5DCCC
:1023F00005E016F8010B5A460B9990476D1CB9F190
:102400000001A9F10109F4DC641C65E70928010059
:102410004168486A002200B24A62704713B54FF41F
:102420007A73012269460248FFF794FB00981CBDAD
:1024300050020020A2B0FEF7C7FBFFF72FFDFFF709
:10244000E5FBFFF7E5FCFFF703FDFFF70FFCFFF7E8
:1024500041FCFFF773FCFFF7A7FC01223F4940480E
:10246000FFF732FB3E480068C16841F01001C160CF
:102470003D223C4910A8FDF787FE3A4810F83D1F61
:102480008DF87D1041788DF87E1081788DF87F1061
:10249000C1788DF8801001798DF8811041798DF81F
:1024A000821081798DF88310C1798DF88410017ABA
:1024B0008DF88510407A8DF88600402212A9684672
:1024C000FDF762FEDDE910230121274800F0AAF89C
:1024D0003D22264910A8FDF757FE244810F83D1F5D
:1024E0008DF87D1041788DF87E1081788DF87F1001
:1024F000C1788DF8801001798DF8811041798DF8BF
:10250000821081798DF88310C1798DF88410017A59
:102510008DF88510407A8DF88600402212A9684611
:10252000FDF732FE1048DDE910230221803000F073
:1025300079F80F48FEF708FF0E48FEF705FF3C212B
:102540000848FFF747F83C210848FFF743F84FF4E5
:10255000FA742046FEF70EFAFBE700000C0000209C
:1025600050020020300100203000002078010020BF
:10257000C00100200802002010B54FF47A72914289
:1025800002DC5242914200DA11460F4A02F8010B76
:10259000062002F8010B002002F8010B402002F88F
:1025A000030B080A02F8020C02F8011C531C062156
:1025B0000548FEF72AF9BDE810404FF4FA730822E7
:1025C00001490248FFF7C6BA00000020900200202F
:1025D00070B50446FFF71CFF6188084406B26680A8
:1025E000606FFDF7E2FF05463046FDF7DEFFA16FA5
:1025F000FDF778FEE16FFDF743FE2946FDF740FE4B
:102600004FF0FF31FDF7ACFE01466065206DFDF730
:1026100031FEA06500F054F9E16CBDE87040FDF7B3
:102620002FBE00000FB43D2270B501700025044696
:10263000458006A9001DFDF7A7FD9DF8550004F88B
:10264000410F9DF8560060709DF85700A0709DF8EE
:10265000580004F8030F9DF8590060709DF85A0067
:10266000A0709DF85B00E0709DF85C0020719DF803
:102670005D0060719DF85E00A0710B48C4E9020521
:10268000256165610948A561C4E907500848606291
:102690000848A06204202063074860630748A063DD
:1026A00070BC5DF814FB0000000080BF0000F0412A
:1026B000CDCCCC3DCDCC6C4000004040E709B53BD3
:1026C00070B5A6B000258DF888508DF88C5023ABDE
:1026D00022AA06216848FEF798F8674C9DF88810F2
:1026E000A079884238D1E0799DF88C10884233D1A6
:1026F0006178012910D0022930D060484FF4FA7671
:10270000032937D0042927D122780378D4F802107E
:102710009A427CD10165A5E0A078594D012803D1EA
:1027200004212846FEF734FAE078012803D1082175
:102730002846FEF72DFA2079012803D110212846DA
:10274000FEF726FA6079012803D120212846FEF7FA
:102750001FFA4CA0FFF782FD26B070BDD4F80250DE
:10276000227829464BA0FFF779FD20782946FFF70C
:1027700003FFF1E721780478A14235D13D224D498C
:1027800010A8FDF701FD4B4810F83D1F8DF87D1096
:1027900041788DF87E1081788DF87F10C1788DF8A2
:1027A000801001798DF8811041798DF8821081793E
:1027B0008DF88310C1798DF88410017A8DF8851019
:1027C000407A8DF88600402212A96846FDF7DCFCAD
:1027D000DDE9102321462948FFF724FF24953346DD
:1027E000082224A9259542E090F88040A142B3D167
:1027F0003D22314910A8FDF7C7FC2F4810F83D1FB6
:102800008DF87D1041788DF87E10817800E023E00E
:102810008DF87F10C1788DF8801001798DF88110C6
:1028200041798DF8821081798DF88310C1798DF806
:102830008410017A8DF88510407A8DF88600402248
:1028400012A96846FDF7A0FC0C48DDE910232146DB
:102850008030FFF7E7FE7FE790F880309A4288D11A
:10286000C0F8D010009533460822694601951348F8
:10287000FFF770F970E7000024000020300000200E
:10288000001801404C454420636F6D706C657465A1
:102890002E00000070776D5F76616C75653A2025BB
:1028A000642C206D6F746F722069643A2025640D6A
:1028B0000A000000300100207801002050020020B2
:1028C0002DE9F0410646234A002026F00044224923
:1028D000944203DD304600F049F834E06FF07E5258
:1028E000A3181E4AB3F1907F24D20846FDF7C5FC19
:1028F0000546304600F03AF8FDF779FE06460F46E9
:102900002846FDF774FE054688462046FDF76FFE13
:1029100002460B4600201249FDF7D5FD2A464346E4
:10292000FDF7CBFD32463B46FDF7CDFDBDE8F0415E
:10293000FDF770BE0B490C4B2144994207D8304635
:1029400000F014F81146BDE8F041FDF799BCBDE870
:10295000F08100000000A04000007A4400004843DD
:1029600000006940F5285CC3F528DC02B0F5000FD3
:1029700002DB4FF07E50704710F1FF4F01D3024849
:102980007047002070470000000080BF000000007A
:10299000000000000102030406070809000000000F
:1029A00001020304C42900080000002024000000E4
:1029B0009C220008E829000824000020AC06000042
:1029C000AC22000800000000000000000000000031
:1029D000FF000000010000001000000000000000E7
:0829E0000024F40000000000D7
:0400000508000131BD
:00000001FF
