:020000040800F2
:100000009806002045010008B31E00089D1B00084B
:10001000B11E000819080008912200080000000025
:10002000000000000000000000000000B71E0008F3
:100030004F08000800000000B51E0008B91E0008A7
:100040005F0100085F0100085F0100085F01000810
:100050005F0100085F0100085F0100085F01000800
:100060005F0100085F0100085F0100085F010008F0
:100070005F0100085F0100085F0100085F010008E0
:100080005F0100085F0100085F0100085F010008D0
:100090005F0100085F0100085F0100085F010008C0
:1000A0005F0100085F0100085F0100085F010008B0
:1000B000111F00081D1F0008291F00085F0100080C
:1000C0005F0100085F0100085F0100085F01000890
:1000D0005F010008552200087922000885220008E7
:1000E0005F0100085F0100085F0100085F01000870
:1000F0005F0100085F0100085F0100085F01000860
:100100005F0100085F010008351F00085F0100085B
:100110005F0100085F0100085F0100085F0100083F
:100120005F0100085F0100085F0100085F0100082F
:10013000DFF80CD000F05EFB004800479127000874
:10014000980600200648804706480047FEE7FEE77D
:10015000FEE7FEE7FEE7FEE7FEE7FEE7FEE7FEE777
:100160000D1F000831010008202A04DB203A21FA83
:1001700002F00021704721FA02F3D040C2F12002C0
:100180009140084319467047D2B201E000F8012BB4
:10019000491EFBD270470022F6E710B513460A4607
:1001A00004461946FFF7F0FF204610BDF0B480EA80
:1001B0000102D40F4200B2EB410F02D202460846C0
:1001C00011464A0042D0C30DDDB2C1F3C752AD1A89
:1001D000202D35DAC1F3160141F4000204B1524278
:1001E000C5F1200602FA06F12A411044B3EBD05FB4
:1001F00023D0C4B1012DA0EBC35009DCF0BC4FF0FB
:10020000004202EAC352DBB200F5000000F067BA18
:10021000400000F1807000EBC350A0F1807040EA14
:10022000D170490009E0490841EAC071A0EBC35010
:1002300000F50000400800EBC350F0BC00F046BAE7
:100240006142012202EB4101001BF6E7F0BC70475E
:1002500081F00041AAE780F00040A7E780EA0102B0
:1002600010B502F00043400022D04A001FD0010E1A
:1002700001EB1261C0F35600C2F3560240F40000D5
:1002800042F40002A0FB022000047F39140400D0D5
:10029000401C50EA124001D44000491EC2B20C0674
:1002A00004EBD010401C4008802A02D003E000205C
:1002B00010BD20F00100002900DA0020184310BD15
:1002C00030B480EA010202F0004530F0004221F033
:1002D000004013D090B1C30DD40DC2F31601C0F38A
:1002E0001600E41A41F4000140F400027D3491420A
:1002F00001D3641C00E04900002C02DA30BC00206D
:1003000070474FF400000023914201D3891A034340
:1003100040084FEA4101F7D151B1914202D14FF06B
:10032000004105E002D24FF0010101E06FF0010150
:1003300003EBC450284430BC00F0C8B9420005D0DB
:10034000C0F3C7525242914201DC0020704700EBDB
:10035000C15070472DE9FE4F804681EA0300C00F6F
:100360000C46009021F0004123F00045B8EB02005C
:10037000A94105D24046214690461C460B460246FE
:1003800023F00040104347D0270DC7F30A00C3F302
:100390000A510290401A019040286BDAC3F313000F
:1003A00040F4801B0098924620B10023D2EB030A50
:1003B00063EB0B0B01985946C0F14002504600F028
:1003C00064F906460D4650465946019A00F06CF90C
:1003D00010EB08006141002487EA115284EAE773B8
:1003E0001A4340D0009A62B3019A012A4FEA075299
:1003F00015DC001B61EB02014FF0004202EA0752DC
:10040000CDE90042001C41F5801132462B4600F038
:10041000A3F903B0BDE8F08F40462146F9E7001B81
:1004200061EB0201001C41F5801300185B412018AC
:10043000A2F5001747EB030140EAD570B6196D41EC
:1004400011E06D084FEA360645EAC0754FEA0752DB
:10045000001B61EB0201001C41F5801149084FEAC5
:1004600030000019514132462B4603B0BDE8F04F31
:1004700000F063B90098012240000023D0EB020293
:1004800063EBE073009821464FEAE074B8EB00009C
:1004900061EB0401E9E783F000435BE781F0004191
:1004A00058E72DE9FE4F81EA030404F0004421F0EF
:1004B000004100944FF0000B23F0004350EA010488
:1004C0005ED052EA03045BD0C3F30A54C1F30A5569
:1004D0002C44A4F2F3340194A0FB0254C1F31301A1
:1004E00041F48011C3F3130343F4801301FB02446E
:1004F00000FB034E840A970A44EA815447EA835773
:10050000A4FB076802958D0A05FB07854FEA932C2B
:1005100004FB0C542705029D4FEA065847EA16379C
:10052000B5EB08056EEB070C870E920E47EA8117B4
:1005300042EA8312A7FB0201B6EB0B0164EB000455
:100540002B0D43EA0C335E1844EB1C50DA4651463F
:10055000E7FB0201C5F313044FEA0B3343EA1453DC
:100560004FEA0432019C43EA0603A4F10C0402940E
:10057000009CCDE900B400F0EFF803B0BDE8F08FC7
:1005800000200146F9E7C10F80EAE0700844CA077D
:100590009623002100F0A3B800F0004220F00040B4
:1005A000C10DC0F3160040F400007F2901DA0020DD
:1005B0007047962903DCC1F19601C84001E09639E5
:1005C0008840002AF4D04042704700F0004230F0EA
:1005D00000400AD0C10D01F56071C0F3160042EA77
:1005E0000151C2084007114370470020014670477F
:1005F00001F0004330B421F0004150EA010206D07E
:100600000A0DA2F56072C1F31301002A02DC30BCAE
:1006100000207047440F44EAC104C100E01830BC18
:1006200000EBC25000F052B82DE9F05F0546002003
:1006300092469B4688460646814640241BE0284653
:10064000414647462246FFF78FFD53465A46C01A99
:10065000914110D311461846224600F016F82D1A83
:1006600067EB01084F4622460120002100F00DF8FB
:1006700017EB00094E41201EA4F10104DFDC4846BF
:1006800031462A464346BDE8F09F202A04DB203A43
:1006900000FA02F1002070479140C2F1200320FAD5
:1006A00003F3194390407047202A06DBCB17203A0A
:1006B00041FA02F043EAE07306E041FA02F3D04067
:1006C000C2F1200291400843194670470029A8BF93
:1006D0007047401C490008BF20F00100704710B46B
:1006E000B0FA80FC00FA0CF050EA010404BF10BC20
:1006F000704749B1CCF1200421FA04F411FA0CF14D
:1007000018BF012121430843A3EB0C01CB1D4FEA85
:1007100000614FEA102042BF002010BC704700EB80
:10072000C35010440029A4BF10BC7047401C4900AE
:1007300008BF20F0010010BC704710B5141E73F103
:10074000000408DA401C41F1000192185B411A4391
:1007500001D120F0010010BD2DE9F04D92469B46DD
:1007600011B1B1FA81F202E0B0FA80F22032904683
:10077000FFF78BFF04460F4640EA0A0041EA0B01EF
:1007800053465A46084313D0114653EA010019D084
:10079000C8F140025046FFF7E7FC05460E465046BA
:1007A00059464246FFF771FF084305D0012004E097
:1007B00020463946BDE8F08D0020054346EAE07644
:1007C0002C4337430A986305E40AA0EB0800002293
:1007D000FD0A44EA47540A3002D500200146E9E701
:1007E000010510196941DDE9084500196941BDE8B5
:1007F000F04DA2E7064C074D06E0E06840F001032B
:1008000094E8070098471034AC42F6D3FFF794FC05
:10081000CC2B0008EC2B0008FEE7F0B54FF6FF7478
:1008200000254AF201070CE0465D744000265FEAAD
:10083000C47C4FEA540400D07C40761C082EF6DBC2
:100840006D1C8D42F0DB1470200A1870F0BD7047EB
:1008500072B6FEE72DE9F05F90F82110002402291E
:1008600003D004218163012485E001680A6822F035
:100870000E020A6001680A6822F001020A603F4E17
:100880003E4FB215DFF8F4C0DFF8F090DFF8ECA0CF
:10089000DFF8E8B0DFF8E4E00168783F1301150203
:1008A000ACF1640CA9F15009AAF13C0AABF1280B98
:1008B000AEF1140E4FF48018B14227D9B9420ED0D0
:1008C000614512D049451DD0514518D0594518D021
:1008D000714501D1424615E0294EB14201D10122B4
:1008E00010E0274E1436B14201D110220AE0244E06
:1008F0002836B14206D0224A3C32914201D11A46F2
:1009000000E02A461E49091F0A602BE0B94213D0B5
:10091000614517D0494522D051451DD059451DD0BC
:10092000714501D142461AE0B14202D14FF08072C6
:1009300015E0134EB14201D1012210E0104E1436E1
:10094000B14201D110220AE00D4E2836B14206D044
:100950000B4A3C32914201D11A4600E02A4607492F
:1009600080394A60012180F82110002180F8201090
:10097000416B01B188472046BDE8F09F80000240EE
:100980000804024070B5044600F018F90546601CE2
:1009900002D004480078044400F010F9401BA04243
:1009A000FAD370BD100000202DE9F84FDFF8C89190
:1009B000002409F1040A0AF1040B23460F270BF166
:1009C000040ED1E00125A54006EA0502AA4276D12F
:1009D000DFF8A8C14E68A6EB0C0866452BD00DDCED
:1009E000032E34D005DC36B3012E19D0022E2FD1C0
:1009F0001BE0112E16D0122E2AD119E0B8F5881F4F
:100A000019D006DCB8F5803F15D0B8F5801F1FD18E
:100A100011E0B8F5001F0ED0B8F5041F18D10AE098
:100A2000CB6815E0CB681B1D12E0CB6808330FE0E4
:100A3000CB680C330CE08B682BB1012B4FF0080313
:100A400003D0456104E0042302E0056100E00023D7
:100A5000FF2A01D8064601E000F104064FEA8405AA
:100A600001D9A5F12005D6F8008007FA05FC28EA8F
:100A70000C0803FA05F548EA0508C6F800804D6839
:100A8000ED0070D53E4DAE6946F00106AE61AD6930
:100A900024F0030605F0010500953A4D06EB050C20
:100AA000DCF80850A607360F07FA06F825EA08050D
:100AB000DFF8D480404503D14FF0000825E052E034
:100AC000DFF8C880404502D14FF001081DE0DFF893
:100AD000C080404502D14FF0020816E0DFF8B48034
:100AE000404502D14FF003080FE0DFF8AC804045ED
:100AF00002D14FF0040808E0DFF8A080404502D1A1
:100B00004FF0050801E04FF0060808FA06F848EA39
:100B10000508CCF808804D68D9F80060ED034D4613
:100B200001D5164300E096432E604D68DAF8006068
:100B3000AD03554601D5164300E096432E604D683F
:100B4000DBF80060ED025D4601D5164300E09643F8
:100B50002E604D68DEF80060AD02754601D5164383
:100B600000E096432E60641C0A681646E2407FF45B
:100B700029AFBDE8F88F000000040140000011100B
:100B8000001002400000014000080140000C01403C
:100B9000001001400014014000180140001C0140F9
:100BA000C26821EA02030A4043EA02410161704738
:100BB0000AB1016170470904FBE700000148806841
:100BC000704700001000002002488168027811443C
:100BD0008160704710000020074810B5016841F09F
:100BE00010010160032000F06DF8002000F006F80D
:100BF00000F024F8002010BD0020024070B50D4D1B
:100C000004464FF47A712878B1FBF0F00A4909687C
:100C1000B1FBF0F000F0E4FA48B9102C07D2002242
:100C20002146501E00F02EF800206C6070BD01209F
:100C300070BD0000100000201C000020094808B50D
:100C4000816941F001018161816901F00101009137
:100C5000C16941F08051C161C06900F080500090CD
:100C600008BD000000100240002809DB00F01F0250
:100C7000012191404009800000F1E020C0F80011FE
:100C800070470000F0B40E4B1B680C46C3F3022300
:100C9000C3F10705042D00D90425191D072901D228
:100CA000002300E0DB1E012606FA05F1491E214063
:100CB00099409E40761E16403143F0BC01F0FABACE
:100CC0000CED00E0064900F0070208684FF6FF034C
:100CD000184040EA0220034A1043086070470000B1
:100CE0000CED00E00000FA052DE9F0470F46050085
:100CF00061D0434E306800F00700B84209D2306836
:100D000020F0070038433060306800F00700B84238
:100D100051D128683B4C810712D5400703D5606844
:100D200040F4E06060602878000703D5606840F414
:100D3000605060606068A96820F0F000084360605F
:100D40002878C00728D06868012810D021680228B8
:100D500010D0890700292EDA616821F003010143D0
:100D60006160FFF72BFF804641F288390DE0216872
:100D70008903EFE78901EDE7FFF720FFA0EB08010A
:100D8000494502D90320BDE8F0876068696800F032
:100D90000C00B0EB810FEFD1306800F00700B842D3
:100DA0000BD9306820F0070038433060306800F01D
:100DB0000700B84201D00120E5E72878400705D5B3
:100DC0006068E96820F4E060084360602878000704
:100DD00006D56068296920F4605040EAC10060606F
:100DE00000F038F86168084AC1F30311515CC8404B
:100DF0000649086006480068FFF700FF0020C2E7C8
:100E00000020024000100240B22B00081C0000200D
:100E1000140000200448054900684968044AC1F3E9
:100E20000221515CC84070471C00002000100240A5
:100E3000C22B00080448054900684968044AC1F308
:100E4000C221515CC84070471C00002000100240C5
:100E5000C22B000812A185B00FC98DE80F0014A0A5
:100E6000144A006804905168134801F00C03042BE5
:100E700010D0082B0ED1C1F38343C9031DF8030022
:100E80000AD5516804AAC1F34041515C0A4A504353
:100E9000B0FBF1F005B0704708494843FAE700009D
:100EA00002030405060708090A0B0C0D0E0F1010AB
:100EB000010200000010024000127A0000093D000B
:100EC0002DE9F84F040070D02078C04DC00749D0FC
:100ED0006868C0F38100012807D06868C0F381000A
:100EE000022809D16868C00306D52868800339D56F
:100EF00060680028E7D035E06068B0F5803F0BD02F
:100F000010B1B0F5A02F11D0286820F480302860EF
:100F1000286820F4802002E0286840F480302860AF
:100F2000606890B1FFF74AFE06460AE0286840F480
:100F300080202860F0E700BFFFF740FE801B642898
:100F400073D828688003F7D50CE0FFF737FE064614
:100F500005E000BFFFF732FE801B6428F0D8286848
:100F60008003F7D420789A4E80074FF001094FF0A4
:100F7000000839D5686810F00C0F07D06868C0F316
:100F80008100022809D16868C00306D42868800758
:100F900014D52069012808D110E02069B0B1C6F845
:100FA0000090FFF70BFE074605E00AE1FFF706FE9B
:100FB000C01B0228C4D828688007F7D52868616953
:100FC00020F0F80040EAC10028600DE0C6F800807B
:100FD000FFF7F4FD074604E0FFF7F0FDC01B022811
:100FE00023D828688007F7D4207800072CD57948C3
:100FF000A169D9B1C0F80090FFF7E0FD074604E011
:10100000FFF7DCFDC01B02280FD8686A8007F7D500
:1010100071484FF4FA510068B0FBF1F0009000BF46
:101020000098411E0091FAD20EE080E0C0F80080E6
:10103000FFF7C4FD074604E0FFF7C0FDC01B022810
:1010400075D8686A8007F7D42078400760D5E869CA
:101050000027C00008D4E86940F08050E861E869E2
:10106000012700F0805000905C480168C90513D446
:101070000168834641F480710160FFF79FFD82465D
:1010800006E000BFFFF79AFDA0EB0A0064284ED8E7
:10109000DBF80000C005F5D5E06801280AD008B1EA
:1010A000052813D0286A20F001002862286A20F061
:1010B000040002E0286A40F001002862E06841F282
:1010C000883B98B1FFF77AFD82460BE0286A40F032
:1010D00004002862EEE700BFFFF770FDA0EB0A01F5
:1010E00059455AD8286A8007F6D50CE0FFF766FD07
:1010F000824605E0FFF762FDA0EB0A0159454CD896
:10110000286A8007F6D41FB1E86920F08050E861B2
:10111000E06988B36968C1F38101022944D00228DB
:10112000C6F8608004D0FFF749FD044638E034E09B
:10113000FFF744FD074604E0FFF740FDC01B02280F
:101140002BD828688001F7D4206AB0F5803F05D1FC
:101150006868A16820F4003008436860D4E9080199
:101160000843696821F4741108436860C6F8609008
:10117000FFF724FD044606E025E000BFFFF71EFD53
:10118000001B022809D828688001F7D51BE000BFA2
:10119000FFF714FD001B022802D90320BDE8F88FD9
:1011A00028688001F4D40EE00128F7D06868226A2C
:1011B00000F48031914204D1616A00F470108842D9
:1011C00001D00120EAE70020E8E70000001002401B
:1011D00000004242800442421C0000200070004097
:1011E00010B5401EB0F1807F01D3012010BD4FF03B
:1011F000E02460610F21601701F05CF80020A0611D
:1012000007202061002010BD7047704770B590F82E
:101210003C20012A2CD0012480F83C40022280F896
:101220003D2003685A689D6822F070060A683243C0
:101230005A60104B02689A420ED00F4B9A420BD064
:10124000B2F1804F08D00D4B9A4205D00C4B9A4218
:1012500002D00C4B9A4204D1496825F0800319430F
:10126000916080F83D40002180F83C10084670BD38
:10127000022070BD002C01400034014000040040F9
:1012800000080040000C004010B5040003D094F8A2
:101290003D0010B107E0012010BD002084F83C00A3
:1012A000204600F01FF8022084F83D00211D206830
:1012B00000F046FE012084F8460084F83E0084F8E1
:1012C0003F0084F8400084F8410084F8420084F82C
:1012D000430084F8440084F8450084F83D00002071
:1012E00010BD000008B5154A0168154891420ED19D
:1012F000C16941F00401C161C069002200F004002D
:10130000009002211E20FFF7BDFC1E2010E00D4AB8
:10131000914211D1C16941F00801C161C069002247
:1013200000F00800009002213220FFF7ABFC3220D1
:10133000BDE80840FFF798BC08BD00000008004069
:1013400000100240000C004070B5044690F83C00CC
:10135000012817D0012584F83C50022084F83D0074
:101360002068826822F0770222F47F428260086857
:10137000502830D00DDC20284DD005DC98B3102843
:101380003BD148E0022070BD302844D0402834D101
:1013900039E0602828D0702806D0B0F5805F2CD0C6
:1013A000B0F5005F29D10AE0CB68D1E901212068BE
:1013B00000F019FE2068816841F0770109E0CB68F0
:1013C000D1E90121206800F00EFE2068816841F417
:1013D0008041816011E0CA684968206800F015FE0C
:1013E0005021206807E016E0CA684968206800F0CC
:1013F0001DFE6021206800F000FE84F83D500020B2
:1014000084F83C0070BDCA684968206800F0FDFDA2
:1014100040212068EFE7226801461046EBE72DE9FE
:10142000F0410D46040003D094F83D0018B108E0E7
:101430000120BDE8F081002084F83C00204600F047
:1014400041F8022084F83D002068816844F20702D8
:1014500091438160211D206800F072FD2268906830
:101460009169166A2B68AF69034340F203308143E8
:1014700041EA0721A868EF6908434FF6FC41884319
:10148000E96840EA0720014328692F6A000140EA21
:101490000730084369686D6926F0220646EA05159B
:1014A000294393602268906154F8460B0162012041
:1014B00004F81F09E0752076E0762077A0750020FB
:1014C000B7E7000000B585B00021009101910291BD
:1014D0000391026821492248B2F1804F22D0214B6A
:1014E0009A421DD1CA6942F00202CA61CA6902F079
:1014F000020204928A6942F004028A61896901F059
:1015000004010491C02100916946FFF74DFA0022C1
:1015100001211D20FFF7B6FB5FF01D00FFF7A4FBC4
:1015200005B000BDCA6942F00102CA61CA6902F091
:10153000010204928A6942F004028A61896901F019
:1015400004010491032100916946FFF72DFA00225E
:1015500001211C20FFF796FB1C20DFE70010024052
:10156000000801400004004070B590F83E60044659
:1015700090F83F5090F8423090F84320022021B17B
:1015800004290ED0012E1BD114E0012E18D1012BFD
:1015900016D184F83E0084F8420001220021206820
:1015A00020E0012D0CD1012A0AD184F83F0084F8F3
:1015B000430014E0012D03D1012B01D1012A01D0F8
:1015C000012070BD84F83E0084F83F0084F842009A
:1015D00084F8430001220021206800F0F7FC01227A
:1015E0000421206800F0F2FC2068016841F001014C
:1015F0000160002070BD704770B504460068016945
:101600004FF00005C943890715D4C168C94389074C
:1016100011D4E91E016101202077206880698007CC
:10162000204602D0FFF7E7FF04E000F098F82046DC
:1016300000F096F8257720680169C943490717D457
:10164000C168C943490713D46FF004010161022046
:1016500020772068806910F4407F204602D0FFF791
:10166000CAFF04E000F07BF8204600F079F8257707
:1016700020680169C943090716D4C168C94309072D
:1016800012D46FF008010161042020772068C0693E
:101690008007204602D0FFF7AEFF04E000F05FF8BD
:1016A000204600F05DF8257720680169C943C90626
:1016B00017D4C168C943C90613D46FF01001016182
:1016C000082020772068C06910F4407F204602D0AF
:1016D000FFF791FF04E000F042F8204600F040F8E8
:1016E000257720680169C943C90708D1C168C94382
:1016F000C90704D1891E0161204600F032F8206834
:101700000169C943090609D4C168C943090605D45A
:101710006FF0800101612046FFF776FD20680169C6
:10172000C943490609D4C168C943490605D46FF0C5
:1017300040010161204600F015F820680169C943A5
:1017400089060BD4C168C943890607D46FF020010C
:1017500001612046BDE87040FFF757BD70BD70477E
:10176000704770477047704770B50268044610684C
:10177000D168536910F00F0F52D003F0010501F446
:1017800090762E435FD0C20705D0CA0503D5E26B21
:1017900042F00102E263420705D5DA0703D0E26BAB
:1017A00042F00202E263820705D5DA0703D0E26B5A
:1017B00042F00402E263020707D501F020022A4347
:1017C00003D0E26B42F00802E263E26B002A33D0FE
:1017D000800604D5880602D5204600F067FC206804
:1017E0004069E16BC0F38010090700D428B320469C
:1017F00000F036FC2068416949061AD5416921F09C
:1018000040014161606BA0B12D494163606BFFF7FE
:1018100021F8002810D0606B416BBDE8704008478C
:10182000830610D58B060ED52046BDE8704000F02B
:101830003DBC2046FFF797FF70BD2046FFF793FFA2
:101840000020E06370BD03062BD50B0629D594F864
:1018500039002128F6D1A068B0F5805F01D1206958
:10186000B0B1206A411C2162216800784860E08C98
:10187000401E0004000CE084E4D12068C16821F01F
:101880008001C1602068C16841F04001C16070BD45
:10189000206A0088C0F308005060206A801C206223
:1018A000E5E74006F3D54806F1D5D168204621F09A
:1018B0004001D160202184F8391000F06EF970BD2C
:1018C0005120000870B5040004D094F839000025B8
:1018D00010B106E0012070BD84F83850204600F0B9
:1018E00023F8242084F839002068C16821F40051CD
:1018F000C160204600F020FC2068016921F490417D
:1019000001612068416921F02A0141612068C168B4
:1019100041F40051C160E563202084F8390084F867
:101920003A00002070BD0000F0B585B0002400949E
:101930000194029403940368424F02204249032217
:10194000424D4602BB4225D18B6943F480438B61F3
:101950008B6903F4804304938B6943F004038B6128
:101960008969039201F0040104910102CDE900109C
:1019700069462846FFF718F8CDE90064694628460D
:101980000294FFF711F8002211462520FFF77AF99B
:10199000252028E02E4FBB4229D1CB6943F40033E8
:1019A000CB61CB6903F4003304938B6943F00403E8
:1019B0008B618969039201F0040104910421CDE94E
:1019C000001069462846FEF7EFFF0820CDE9000425
:1019D000694628460294FEF7E7FF002211462620BA
:1019E000FFF750F92620FFF73FF905B0F0BD194D7C
:1019F000AB42FAD1CB6943F48023CB61CB6903F4CA
:101A0000802304938B6943F008038B618969124D2D
:101A100001F00801CDE90321CDE9006069462846BF
:101A2000FEF7C2FFE814CDE9000469462846029497
:101A3000FEF7BAFF002211462720FFF723F92720DF
:101A4000D1E70000003801400010024000080140CA
:101A50000044004000480040000C014090F83A303B
:101A6000202B22D1F9B1F2B190F83830012B1CD0E3
:101A700081628285C2850021C163222280F83A20DA
:101A800080F838100168CA6842F48072CA60016840
:101A90004A6942F001024A610068C16841F02001D0
:101AA000C16000207047012070470220704700008D
:101AB0000068084988420CD107480949074B027859
:101AC00008681A54401C0860012203490548FFF7C2
:101AD000C5BF7047003801400C00002024000020E2
:101AE00008000020D80100202DE9F843044690F8B2
:101AF00039001F4616460D4620284CD1C5B1BEB14F
:101B000094F83800012846D0012084F838004FF0BE
:101B10000008C4F83C80212084F83900FFF74EF813
:101B2000A6848146E684A068B0F5805F03D004E017
:101B30000120BDE8F883206928B12E465FF000053A
:101B400084F838800EE00026FAE78021204600F075
:101B50004FFBA0B9AEB116F8010B21684860E08CCC
:101B6000401EE084E08C4B464FF0000200970028B6
:101B7000EBD14FF04001204600F03AFB30B103209A
:101B8000D7E735F8020BC0F30800E6E7202084F819
:101B900039000020CDE70220CBE77047FEE70000C8
:101BA0002DE9F04385B00024254800940194029467
:101BB0000394816941F040018161816901F0400134
:101BC0000491816941F004018161816901F004019E
:101BD0000491816941F480718161816901F48071AE
:101BE0000491816941F0080181618069DFF85480C6
:101BF00000F00800049000223C214046FEF7D8FF88
:101C0000DFF8449040F6FF77002239464846FEF759
:101C1000CFFF3C2001250226CDE90005CDE9024693
:101C200069464046FEF7C0FE00970396CDE9015491
:101C300069464846FEF7B8FE05B0BDE8F0830000EF
:101C400000100240001801400020014010B58CB087
:101C500024216846FEF79FFA0024154809944FF0A6
:101C600080410A94C0E900144FF6FF71C0E90241B7
:101C7000046184610120CDE90004CDE902040494EB
:101C8000CDE905400794694609480894FFF7C7FB6A
:101C900008B1FEF7DDFD099409A905480A94FFF78C
:101CA000B5FA002801D0FEF7D3FD0CB010BD00003E
:101CB000B800002010B58CB024216846FEF76BFAFE
:101CC00000241548099413490A94C0E900144FF6FA
:101CD000FF71C0E90241046184610120CDE9000483
:101CE000CDE902040494CDE90540079469460A4809
:101CF0000894FFF794FB08B1FEF7AAFD099409A91F
:101D000005480A94FFF782FA002801D0FEF7A0FDEB
:101D10000CB010BD000400400001002010B586B0DA
:101D200000241848009401940294039404941449E4
:101D30000594016040F28F11C0E9011440F2E731CF
:101D4000C0E9031480218161FFF79EFA08B1FEF714
:101D50007FFD4FF48050009069460A48FFF7F4FA7F
:101D600008B1FEF775FD049404A906480594FFF731
:101D70004DFA002801D0FEF76BFD06B010BD000043
:101D8000000800404801002010B586B00024174824
:101D900000940194029403940494134905940160FF
:101DA00040F28F11C0E9011440F2E731C0E9031499
:101DB0008461FFF769FA08B1FEF74AFD4FF48050DD
:101DC000009069460948FFF7BFFA08B1FEF740FDE9
:101DD000049404A905480594FFF718FA002801D0D7
:101DE000FEF736FD06B010BD000C0040900100204B
:101DF0000E4810B50C4901604FF4E13141604FF4D9
:101E00008051816000214FF48062C0E903120C22EE
:101E1000C0E90521C161FFF755FD002803D0BDE8E9
:101E20001040FEF715BD10BD00380140D80100205C
:101E30000E4810B50C4901604FF4E13141604FF498
:101E40008051816000214FF48062C0E903120C22AE
:101E5000C0E90521C161FFF735FD002803D0BDE8C9
:101E60001040FEF7F5BC10BD0044004018020020F1
:101E70000E4810B50C4901604FF4E13141604FF458
:101E80008051816000214FF48062C0E903120C226E
:101E9000C0E90521C161FFF715FD002803D0BDE8A9
:101EA0001040FEF7D5BC10BD00480040580200208D
:101EB000FEE7FEE770477047FEF786BE10B590B0AC
:101EC00028216846FEF767F914210AA8FEF763F98E
:101ED0000220009001200490102000240590079417
:101EE0006846FEF7EDFF08B172B6FEE70F20CDE9B8
:101EF0000A040C940D9400210AA80E94FEF7F4FE37
:101F0000002801D072B6FEE710B010BD7047000087
:101F10000148FFF771BB0000B80000200148FFF73F
:101F20006BBB0000000100200148FFF765BB00000B
:101F3000480100200148FFF75FBB0000900100202E
:101F4000F0B502681C4B1D4D1D4E1E4F1E4C4FF030
:101F5000804C984209D0A04207D0604505D0A842E5
:101F600003D0B04201D0B84204D122F0700E4A68CA
:101F700042EA0E02984209D0A04207D0604505D03F
:101F8000A84203D0B04201D0B84203D122F4407538
:101F9000CA682A434D6922F080022A4302608A6897
:101FA000C2620A688262984201D0A04201D10969E6
:101FB000016301214161F0BD002C0140000400409B
:101FC00000080040000C00400034014010B501F052
:101FD0001F030121046A99408C430462016A9A40FC
:101FE0001143016210BD10B5846842EA032224F453
:101FF0007F440A432243826010BD826822F070024F
:102000000A4342F007018160704710B5036A046A11
:1020100024F001040462846924F0F00444EA021408
:1020200023F00A020A438461026210BD10B5036AFC
:1020300023F0100303628369046A23F4704343EAC4
:10204000023224F0A00343EA01118261016210BD53
:1020500010B5406A0021C185C184FFF784FB10BD23
:102060000168CA6822F49072CA6001684A6922F065
:1020700001024A61202180F83A10704738B5084CB7
:10208000A0420CD107490020086000F09FFC082105
:102090000548FEF785FD206801684068009038BD5E
:1020A000D8010020080000200018014010B590F869
:1020B0003A10222901D0022010BD82684FF48053CB
:1020C0009A4201D1016921B1816A9A421BD04AB179
:1020D0000AE00268816A5268C2F308020A80816AD3
:1020E000891C08E0026972B10268526802F07F023E
:1020F0000A70816A491C8162C18D491E0904090C5C
:10210000C18503D016E002685268F1E70168CA6829
:1021100022F02002CA600168CA6822F48072CA6094
:1021200001684A6922F001024A61202180F83A10D0
:10213000FFF7BEFC002010BD70B5044600680169C1
:10214000E26821F44051114301612169A06808430C
:10215000616908432168CA6841F20C639A430243EB
:10216000CA6020684169A26921F44071114341614C
:102170001E492068884202D1FEF75CFE01E0FEF7AE
:1021800049FE00EBC00101EB001260686421800091
:10219000B2FBF0F3B3FBF1F36FF018067343B2FB3D
:1021A000F0F5B2FBF0F605EB8305322303EB0515E2
:1021B000B5FBF1F5B6FBF1F605F0F00505EB0615FC
:1021C000B2FBF0F6B2FBF0F0B0FBF1F06FF01802EA
:1021D000504306EB800003EB0010B0FBF1F02168E8
:1021E00000F00F002844886070BD000000380140F6
:1021F0002DE9F041984617460E460446069D1DE01F
:10220000681C1BD02DB1FEF7D9FCA0EB0800A8423A
:1022100014D92068C16821F4D071C1602068416977
:1022200021F001014161202084F8390084F83A004E
:10223000002084F838000320BDE8F08120680068A1
:1022400036EA000004D00020B842D9D00020F3E7DD
:102250000120F9E710B50748FFF786FA054800683E
:102260000068C043C00604D4BDE810400148FFF731
:1022700005BF10BDD80100200148FFF775BA000066
:10228000180200200148FFF76FBA00005802002032
:10229000FEE700000FB4054B10B503A9044A0298ED
:1022A00000F028F810BC5DF814FB00007927000846
:1022B000200000200907090E002804DB00F1E020BF
:1022C00080F80014704700F00F0000F1E02080F863
:1022D000141D704702E008C8121F08C1002AFAD175
:1022E00070477047002001E001C1121F002AFBD196
:1022F000704700002DE9FF4F8DB00F4605460026C0
:1023000006E025280BD0DDE90F1290476D1C761CE6
:1023100028780028F5D111B03046BDE8F08F0024B0
:10232000A246A1460122EC4900E0044315F8013F12
:10233000203B02FA03F00842F7D128782A2810D06F
:102340006FF02F022878A0F13001092914D80AEB88
:102350008A0102EB410144F0020400EB010A6D1C0A
:10236000F0E701CF5FEA000A03D544F40054CAF154
:10237000000A44F002046D1C28782E2817D115F8A5
:10238000010F44F004042A280ED06FF02F022878A1
:10239000A0F1300109290AD809EB890102EB4101BA
:1023A00000EB01096D1CF2E757F8049B6D1C2878BF
:1023B0006C280FD006DC4C2817D068280DD06A286E
:1023C00014D104E0742810D07A280FD10DE044F421
:1023D00000140AE044F4801401E044F440146978E5
:1023E000814202D104F580146D1C6D1C2A786E2A7E
:1023F0001FD00CDC632A31D004DC002A8BD0582A91
:1024000011D1A3E0642A68D0692A0CD165E0732A4F
:102410002ED004DC6F2A73D0702A04D19BE0752A79
:102420006FD0782A6ED01046DDE90F129047761CE7
:1024300050E1C4F30250022806D0032809D0042832
:1024400001CF09D0066045E101CFF117C0E9006175
:1024500040E101CF06803DE106703BE117F8040B37
:102460008DF8000000208DF80100EB46012003E00C
:1024700057F804BB4FF0FF3061074FF0000102D462
:102480000DE008F10101884649450FDA8045F8DB87
:102490001BF808100029F4D108E008F10101884672
:1024A0008142FADB1BF808100029F6D1DDE90F2381
:1024B000AAEB08008146214600F036F9304400EBD3
:1024C000080604E0DDE90F121BF8010B9047B8F194
:1024D0000108F7D221464846F7E00A21C4F3025327
:1024E0004FF0000B0891022B04D001CFC117032B32
:1024F00009D00AE0FF1D27F00707F7E8020108E00E
:1025000032E01FE020E000B2C117042B01D140B23D
:10251000C117031E71F1000307DA4FF0000CD0EB76
:102520000C006CEB01012D2302E0230504D52B23C5
:102530008DF82430012303E0E30701D02023F7E7DF
:10254000984658E00A2110E010210EE010204FF0CC
:10255000000B08900CE010214FF0000B44F0040435
:102560004FF00809089103E008214FF0000B089193
:10257000C4F30253022B04D001CF0021032B06D059
:1025800006E0FF1D27F00707F7E8020103E080B22D
:10259000042B00D1C0B24FF0000823072BD5702ABE
:1025A00007D0DDF820C08CF0100C5CEA0B0C05D0D5
:1025B0000EE040238DF82430012308E050EA0103A7
:1025C00006D030238DF824308DF82520022398463C
:1025D000DDF820C08CF0080C5CEA0B0C0BD150EA43
:1025E000010301D1630706D530238DF824304FF065
:1025F0000108A9F10109582A04D038A20B9208AAAF
:102600000A920BE03AA2F9E75B46089AFEF70CF84B
:102610000B9B9B5C0A9A521E0A92137050EA0102AD
:10262000F2D10A98ADEB000000F1200B600702D553
:1026300024F4803401E04FF00109D94502DDA9EB13
:102640000B0000E0002000EB0B0141440890AAEBD6
:10265000010AE00306D4DDE90F232146504600F0CD
:1026600063F806444FF0000908E009A911F80900D1
:10267000DDE90F12904709F10109761CC145F4DB31
:10268000E0030CD5DDE90F232146504600F04CF85D
:10269000064404E0DDE90F1230209047761C0899CB
:1026A000481E08900029F5DC08E00A980A9900788D
:1026B000491C0A91DDE90F129047761CBBF100011D
:1026C000ABF1010BF1DC21465046DDE90F2300F0B0
:1026D00019F806446D1C1BE609280100303132331D
:1026E000343536373839616263646566000000004E
:1026F0003031323334353637383941424344454638
:10270000000000002DE9F041044600251E46174652
:10271000880404D405E039462020B0476D1C641EAF
:10272000F9D52846BDE8F0812DE9F04104460025A1
:102730001E469046C80301D5302700E020278804B4
:1027400004D505E041463846B0476D1C641EF9D5F6
:102750002846BDE8F0810000014600220148FEF74E
:1027600027BA00000020014040680168486A002242
:1027700000B24A627047000013B54FF47A73012229
:1027800069460248FFF7B0F900981CBD58020020C6
:10279000FEF722FAFFF792FBFFF702FAFFF728FB9A
:1027A000FFF746FBFFF752FAFFF784FAFFF7B6FA96
:1027B000FFF7EAFAFFF75CFB01222E492E48FFF7EC
:1027C0004DF92D480068C16841F01001C1602B4AE5
:1027D00009212B4800F0D0F829482A4A3C300A2128
:1027E000074600F0C9F83C212448FEF7BDFE3C2115
:1027F0002448FEF7B9FE4FF6FF70FFF7ADFF204803
:1028000001220921783000F0D1F91D4810220A2157
:102810007C3000F0CBF91A4802220B21803000F006
:10282000C5F9174820220C21843000F0BFF9144C60
:10283000154D164E2946124800F074F8FDF7ACFE0F
:1028400001B2207800F024F80220FEF79BF8294618
:10285000384600F067F8FDF79FFE01B294F83C009F
:1028600000F016F804213046FEF79AF90220FEF730
:1028700089F8DFE70C000020D8010020B800002014
:1028800030000020000100200AD7A33C00180140BE
:1028900070B50D464FF47A718D4202DC49428D428B
:1028A00000DA0D460F4C0621E31D207006206070F3
:1028B0000020A0704020E070280A20716571A21DE0
:1028C0002046FDF7AAFF63792279294606A0FFF783
:1028D000E1FC2146BDE870404FF4FA7308220C4831
:1028E000FFF702B90000002070776D3A2025642CB4
:1028F00020646174615B345D3A253032582C206469
:102900006174615B355D3A253032580D0A00000074
:1029100018020020014601220148FEF749B90000D3
:102920000020014070B50446FFF71EFF618808448F
:1029300006B26680206BFDF726FE05463046FDF7A1
:1029400022FE616BFDF7BCFCA16BFDF787FC2946FD
:10295000FDF784FC4FF0FF31FDF7F0FC01462061EC
:10296000E068FDF775FC606100F0BAF8A168BDE8A9
:102970007040FDF773BC000000230170438042608B
:102980000C4AC0E90223036143610B4A8361C0E939
:1029900007320A4A42620A4A8262092908D00A2991
:1029A00006D00221016307494163074981637047EB
:1029B0000421F7E7000080BF0000F041CDCCCC3D02
:1029C000CDCC6C4000004040E709B53B2DE9FC410F
:1029D0003A4C20466678D0F8023002783848072E04
:1029E00090F83C50017829D2DFE806F02804281539
:1029F000252E4D002079334D012803D11021284682
:102A0000FEF7CEF86079012818D12846BDE8FC41D0
:102A10002021FEF7C5B88A4202D12B4A284805E09A
:102A2000AA420BD12648294A29463C3002B0BDE8CB
:102A3000F041FFF7A1BF8A4202D1C360BDE8FC812B
:102A4000AA42FBD18364F9E74FF4FA738A4208D1B2
:102A50001FA4D4E90024CDE900248DF800100069FA
:102A600009E0AA42EAD11AA2D2E90012CDE9001285
:102A70008DF80050C06CCDF8020008226946164857
:102A8000FFF732F8DAE7A078E1780024134D41EA45
:102A90000026012715F82400401E07FA00F03042F6
:102AA00005EB8400408802D0FFF734FF01E0FFF718
:102AB00053FE641C042CEDDBC0E700002400002062
:102AC0003000002000180140B80000200001002064
:102AD0000009000000000000D8010020A80000202C
:102AE0002DE9F0410646234A002026F00044224901
:102AF000944203DD304600F049F834E06FF07E5236
:102B0000A3181E4AB3F1907F24D20846FDF7A3FB19
:102B10000546304600F03AF8FDF757FD06460F46E9
:102B20002846FDF752FD054688462046FDF74DFD37
:102B300002460B4600201249FDF7B3FC2A464346E5
:102B4000FDF7A9FC32463B46FDF7ABFCBDE8F04182
:102B5000FDF74EBD0B490C4B2144994207D8304636
:102B600000F014F81146BDE8F041FDF777BBBDE871
:102B7000F08100000000A04000007A4400004843BB
:102B800000006940F5285CC3F528DC02B0F5000FB1
:102B900002DB4FF07E50704710F1FF4F01D3024827
:102BA0007047002070470000000080BF0170428025
:102BB0007047000000000000000001020304060747
:102BC000080900000000010203040000EC2B0008CB
:102BD0000000002024000000D4220008102C00086F
:102BE0002400002074060000E42200080000000019
:102BF0000000000000000000FF00000001000000D5
:102C000010000000000000000024F400000000009C
:0400000508000131BD
:00000001FF
